:020000040800F2
:10000000D0070020CD010008CD15000877150008A5
:10001000C9150008C9020008D51800080000000032
:10002000000000000000000000000000F9150008BA
:10003000CD02000800000000CF150008FB150008E5
:10004000E7010008E7010008E7010008E7010008F0
:10005000E7010008E7010008E7010008E7010008E0
:10006000E7010008E7010008E7010008E7010008D0
:10007000E7010008E7010008E7010008E7010008C0
:10008000E7010008E7010008E7010008E7010008B0
:10009000E7010008E7010008E7010008E7010008A0
:1000A000E7010008E7010008E7010008E701000890
:1000B000E7010008B1160008E7010008E7010008A1
:1000C000E7010008E7010008E7010008E701000870
:1000D000E7010008B1180008E7010008E70100087F
:1000E000E7010008E7010008E7010008E701000850
:1000F000E7010008E7010008E7010008E701000840
:10010000E7010008E7010008E7010008E70100082F
:10011000E7010008E7010008E7010008E70100081F
:10012000E7010008E7010008E7010008E70100080F
:1001300000F002F800F03AF80AA090E8000C8244BF
:100140008344AAF10107DA4501D100F02FF8AFF29C
:10015000090EBAE80F0013F0010F18BFFB1A43F0A5
:1001600001031847C4180000E4180000103A24BF27
:1001700078C878C1FAD8520724BF30C830C144BF0C
:1001800004680C607047000000230024002500264E
:10019000103A28BF78C1FBD8520728BF30C148BFEA
:1001A0000B6070471FB51FBD10B510BD00F05AF8A9
:1001B0001146FFF7F7FF01F019FC00F078F803B4DF
:1001C000FFF7F2FF03BC01F0A3FB000009488047E2
:1001D00009480047FEE7FEE7FEE7FEE7FEE7FEE729
:1001E000FEE7FEE7FEE7FEE704480549054A064B41
:1001F000704700005916000831010008D0010020A6
:10020000D0070020D0030020D003002070474FF01B
:10021000000200B5134694469646203922BFA0E856
:100220000C50A0E80C50B1F12001BFF4F7AF090762
:1002300028BFA0E80C5048BF0CC05DF804EB890053
:1002400028BF40F8042B08BF704748BF20F8022B96
:1002500011F0804F18BF00F8012B704770477047AE
:1002600070477047754600F02BF8AE4605006946AA
:10027000534620F00700854618B020B5FFF7B4FFBD
:10028000BDE820404FF000064FF000074FF0000897
:100290004FF0000B21F00701AC46ACE8C009ACE818
:1002A000C009ACE8C009ACE8C0098D46704710B57C
:1002B0000446AFF300802046BDE81040FFF77FBF43
:1002C000004870476C01002000BFFEE77047000047
:1002D00070B50446002594F82100022803D00420BC
:1002E000A0630125C1E02068006820F00E002168AD
:1002F00008602068006820F00100216808605C49FF
:100300002068884252D95A4978392068884201D1F8
:10031000012047E0564964392068884201D1102005
:1003200040E0534950392068884201D1801539E0B6
:100330004F493C392068884201D1801432E04C4951
:1003400028392068884202D14FF480302AE0484999
:1003500014392068884202D14FF4801022E04449C9
:100360002068884201D140041CE04249206888424C
:1003700001D1012016E03F4914312068884201D1A3
:1003800010200FE03B4928312068884201D18015B8
:1003900008E038493C312068884201D1801401E0EE
:1003A0004FF480303349091F086051E030497839F3
:1003B0002068884201D1012047E02D496439206836
:1003C000884201D1102040E02949503920688842F4
:1003D00001D1801539E026493C392068884201D195
:1003E000801432E0224928392068884202D14FF433
:1003F00080302AE01E4914392068884202D14FF427
:10040000801022E01A492068884201D140041CE093
:1004100018492068884201D1012016E0154914319D
:100420002068884201D110200FE01249283120684D
:10043000884201D1801508E00E493C31206888428D
:1004400001D1801401E04FF48030094980394860BF
:10045000012084F8210000BF002084F8200000BFA4
:10046000606B10B12046616B8847284670BD000064
:10047000800002400804024010B50446A0B201F01A
:100480005DFA10BD2DE9F847024600239C467BE14A
:100490004FF0010808FA03F4D1F8008008EA0400DC
:1004A000A0427DD1DFF8F4A2D1F80480A8EB0A09BC
:1004B000D0453AD014DCB8F1030F50D009DCB8F1C4
:1004C000000F31D0B8F1010F1CD0B8F1020F49D1A3
:1004D00020E0B8F1110F18D0B8F1120F42D11EE090
:1004E000B9F5881F25D006DCB9F5803F20D0B9F5D5
:1004F000801F37D11AE0B9F5001F18D0B9F5041FD5
:1005000030D117E0D1F80CC02DE0D1F80C8008F103
:10051000040C28E0D1F80C8008F1080C23E0D1F895
:100520000C8008F10C0C1EE000BF00BF00BF00BF34
:1005300000BF00BFD1F80880B8F1000F02D14FF022
:10054000040C0BE0D1F80880B8F1010F03D14FF093
:10055000080C146102E04FF0080C546103E04FF006
:10056000000C00E000BF00BFFF2801D8904601E06A
:1005700002F104084646FF2802D84FEA830803E048
:10058000A3F108084FEA88084746D6F800804FF0E4
:100590000F0909FA07F928EA09080CFA07F900E037
:1005A0007AE048EA0908C6F80080D1F8048008F02B
:1005B0008058B8F1805F6FD100BFDFF8E481D8F8D0
:1005C000188048F00108DFF8D891C9F81880C846AB
:1005D000D8F8188008F00108CDF8008000BF00BFEF
:1005E0004FEAB9384FEA930958F829504FEA83780F
:1005F0004FEA18794FF00F0808FA09F825EA0805BC
:10060000DFF8A081424502D14FF0000824E0DFF876
:100610009881424502D14FF001081DE0DFF88C813E
:10062000424502D14FF0020816E0DFF884814245CE
:1006300002D14FF003080FE0DFF87881424502D184
:100640004FF0040808E0DFF87081424502D14FF016
:10065000050801E04FF006084FEA83794FEA19795F
:1006600008FA09F848EA0505DFF850814FEA9309CE
:1006700048F82950D1F8048008F48038B8F5803F54
:100680000BD1DFF83C81D8F8008048EA0008DFF899
:100690003091C9F800800AE075E0DFF82481D8F8CD
:1006A000008028EA0008DFF81891C9F80080D1F826
:1006B000048008F40038B8F5003F0ED1DFF800815F
:1006C00008F10408D8F8008048EA0008DFF8F09044
:1006D00009F10409C9F800800DE0DFF8E48008F1B1
:1006E0000408D8F8008028EA0008DFF8D49009F15F
:1006F0000409C9F80080D1F8048008F48018B8F51E
:10070000801F0ED1DFF8B88008F10808D8F8008003
:1007100048EA0008DFF8A89009F10809C9F8008044
:100720000DE0DFF89C8008F10808D8F8008028EA7E
:100730000008DFF88C9009F10809C9F80080D1F8A9
:10074000048008F40018B8F5001F0ED1DFF870809F
:1007500008F10C08D8F8008048EA0008DFF860903B
:1007600009F10C09C9F800800DE0DFF8548008F1A8
:100770000C08D8F8008028EA0008DFF8449009F156
:100780000C09C9F800805B1CD1F8008028FA03F836
:10079000B8F1000F7FF47CAEBDE8F88700001110BF
:1007A0000010024000080140000C01400010014010
:1007B0000014014000180140001C014008000140E5
:1007C0000004014010B5C26821EA020302EA0104F4
:1007D00043EA0443036110BD01480068704700000C
:1007E00010000020034800680349097808440149C3
:1007F00008607047100000201800002010B508485D
:10080000006840F0100006490860032000F080F8FE
:100810000F2000F007F800F02BF8002010BD0000BA
:100820000020024070B504460E4800784FF47A71FB
:10083000B1FBF0F00C490968B1FBF0F5284600F077
:10084000D1FB08B1012070BD102C07D20022214637
:10085000501E00F01EF80548046001E00120F2E798
:100860000020F0E718000020000000201400002005
:10087000704701460846002809DB00F01F030122EB
:100880009A4043099B0003F1E023C3F8002100BF15
:1008900070472DE9F05F80460D461646002701F0AF
:1008A0001BF8074639462A46334601F00700C0F1D7
:1008B000070ABAF1040F02D94FF0040A01E0C0F1AF
:1008C000070AD14600F1040ABAF1070F02D24FF02D
:1008D000000A01E0A0F1030AD4464FF0010A0AFA27
:1008E00009FAAAF1010A0AEA020A0AFA0CFA4FF016
:1008F000010B0BFA0CFBABF1010B0BEA030B4AEA01
:100900000B042146404600F0EFFFBDE8F09F0000D9
:1009100000BF00F00702064B19684FF6FF031940AD
:10092000044B0B4343EA0221014B196000BF70479F
:100930000CED00E00000FA0570B504460D460CB958
:10094000012070BD5A48006800F00700A8420ED28E
:100950005748006820F007002843554908600846BA
:10096000006800F00700A84201D00120E9E72078E4
:1009700000F0020002281DD1207800F004000428B5
:1009800005D14C48406840F4E0604A49486020780E
:1009900000F00800082805D14648406840F460503F
:1009A000444948604348406820F0F000A16808438B
:1009B00040494860207800F0010078B36068012861
:1009C00006D13C48006800F4003090B90120B8E737
:1009D0006068022806D13748006800F0007040B90E
:1009E0000120AEE73348006800F0020008B901209A
:1009F000A7E73048406820F00300616808432D49AC
:100A00004860FFF7E9FE064609E0FFF7E5FE801BB8
:100A100041F28831884202D9032092E707E0254855
:100A2000406800F00C006168B0EB810FEDD1204808
:100A3000006800F00700A8420ED91D48006820F0A9
:100A4000070028431A4908600846006800F00700BC
:100A5000A84201D0012074E7207800F004000428A7
:100A600007D11448406820F4E060E1680843114968
:100A70004860207800F00800082808D10D48406838
:100A800020F46050216940EAC1000A49486000F042
:100A900019F808494968C1F30311074A515CC84075
:100AA0000649086006480068FFF7BCFE002048E7DA
:100AB00000200240001002400E1A00080000002032
:100AC00014000020F0B585B00FF26C0C9CE8E0102B
:100AD00001A8A0E8E0101CA52D68009500210022C7
:100AE000002300240020194D696801F00C05F5B1C0
:100AF000042D02D0082D19D101E0154819E001ADEF
:100B0000C1F38346AC5D01F4803555B10F4D6D687E
:100B1000C5F340451DF805200D4D6543B5FBF2F3C7
:100B200002E00C4D04FB05F3184602E000BF084844
:100B300000BF00BF05B0F0BD0203040506070809A9
:100B40000A0B0C0D0E0F10100102000000100240E5
:100B500000127A0000093D00F8B504460CB90120E6
:100B6000F8BD207800F00100002878D0F8484068EF
:100B700000F00C0004280CD0F548406800F00C0090
:100B8000082811D1F248406800F48030B0F5803F69
:100B90000AD1EF48006800F4003000285FD0606898
:100BA00000285CD10120DBE700BF6068B0F5803F22
:100BB00006D1E748006840F48030E549086028E045
:100BC000606858B9E248006820F48030E049086065
:100BD0000846006820F4802008601AE06068B0F5DC
:100BE000A02F0BD1DA48006840F48020D849086073
:100BF0000846006840F4803008600AE0D448006885
:100C000020F48030D24908600846006820F4802033
:100C1000086000BF606888B1FFF7DEFD054606E0AA
:100C2000FFF7DAFD401B642801D9032098E7C84884
:100C3000006800F400300028F2D010E0FFF7CCFD8F
:100C4000054606E0FFF7C8FD401B642801D90320D4
:100C500086E7BF48006800F400300028F2D1207811
:100C600000F00200022857D1B948406800F00C009B
:100C700050B1B748406800F00C00082818D1B448BB
:100C8000406800F4803098B9B148006800F0020074
:100C900020B12069012801D0012061E7AC4800683B
:100CA00020F0F800616940EAC100A949086033E01A
:100CB0002069E8B10120A7490860FFF78DFD0546CE
:100CC00006E0FFF789FD401B022801D9032047E712
:100CD0009F48006800F002000028F2D09C4800689D
:100CE00020F0F800616940EAC1009949086013E00A
:100CF000002098490860FFF76FFD054606E0FFF702
:100D00006BFD401B022801D9032029E790480068A9
:100D100000F002000028F2D1207800F00800082836
:100D20002DD1A069B8B101208B490860FFF754FDAF
:100D3000054606E0FFF750FD401B022801D90320BD
:100D40000EE78348406A00F002000028F2D001203C
:100D500000F03EFC13E000207F490860FFF73CFDF7
:100D6000054606E0FFF738FD401B022801D90320A5
:100D7000F6E67748406A00F002000028F2D12078B9
:100D800000F00400042873D100277148C06900F006
:100D9000805070B900BF6E48C06940F080506C4907
:100DA000C8610846C06900F08050009000BF00BFD5
:100DB00001276A48006800F48070B0B9674800688D
:100DC00040F4807065490860FFF706FD054606E0BF
:100DD000FFF702FD401B642801D90320C0E65F48ED
:100DE000006800F480700028F2D000BFE06801289D
:100DF00006D15748006A40F001005549086227E0D3
:100E0000E06858B95248006A20F001005049086271
:100E10000846006A20F00400086219E0E06805282E
:100E20000BD14B48006A40F004004949086208466B
:100E3000006A40F0010008620AE04548006A20F0BC
:100E40000100434908620846006A20F00400086275
:100E500000BFE068A0B1FFF7BFFC054609E0FFF75F
:100E6000BBFC401B41F28831884202D9032077E65F
:100E700022E03748006A00F002000028EFD012E0BC
:100E8000FFF7AAFC054608E0FFF7A6FC401B41F26D
:100E90008831884201D9032062E62D48006A00F0BB
:100EA00002000028F0D1012F05D12948C06920F0A7
:100EB00080502749C86100BFE069C8B32448406832
:100EC00000F00C00082860D0E069022848D100201A
:100ED00020490866FFF780FC054606E0FFF77CFC2A
:100EE000401B022801D903203AE61948006800F0A7
:100EF00000700028F2D1206AB0F5803F07D1144875
:100F0000406820F40030A168084311494860D4E9E2
:100F1000080108430E49496821F4741108430C493B
:100F2000486001200B490866FFF756FC054607E0BC
:100F30003DE0FFF751FC401B022801D903200FE6DA
:100F40000348006800F000700028F2D02FE0000095
:100F50000010024000004242800442420070004003
:100F6000002014490866FFF737FC054606E0FFF746
:100F700033FC401B022801D90320F1E50E4800682C
:100F800000F000700028F2D111E0E069012800D1E2
:100F9000E6E50948466806F48031206A814204D1BA
:100FA00006F47011606A814201D00120D8E500206A
:100FB000D6E500000000424200100240042808D19B
:100FC0004FF0E021096941F004014FF0E022116186
:100FD00007E04FF0E021096921F004014FF0E02221
:100FE0001161704770B504462546681EB0F1807FD8
:100FF00001D301200FE0681E4FF0E02148610F216E
:101000004FF0FF3000F070FC00204FF0E0218861CD
:1010100007200861002070BD7047704710B5044676
:101020000CB9012010BD94F83D0028B9002084F8C7
:101030003C00204600F026F8022084F83D00211DE7
:10104000206800F03DFB012084F8460000BF84F8D2
:101050003E0001213F20015540200155412001550E
:1010600000BF00BF012084F8420043200155442006
:1010700001554520015500BF012084F83D000020A6
:10108000D0E7000038B504460E492068884217D1E1
:1010900000BF00BF0C48C06940F002000A49C861A7
:1010A0000846C06900F00200009000BF00BF00BF0A
:1010B000032201211D20FFF7ECFB1D20FFF7D9FBC8
:1010C00038BD00000004004000100240014691F8C5
:1010D0003D00012801D001207047022081F83D0029
:1010E0000868C06840F001000B68D860164B0868BB
:1010F000984213D0154B086898420FD00868B0F199
:10110000804F0BD0124B0868984207D0114B0868EB
:10111000984203D0104B086898420CD10868806848
:1011200000F00702062A0CD00868006840F00100B1
:101130000B68186005E00868006840F001000B6863
:1011400018600020C8E70000002C01400034014076
:101150000004004000080040000C0040704710B53B
:10116000044620680069C0F34000D8B12068C06818
:10117000C0F34000B0B16FF00200216808610120A7
:1011800020772068806900F0030018B12046FFF73F
:10119000E5FF05E0204600F0ADF8204600F0ABF892
:1011A0000020207720680069C0F38000D8B1206853
:1011B000C068C0F38000B0B16FF00400216808611E
:1011C000022020772068806900F4407018B1204622
:1011D000FFF7C4FF05E0204600F08CF8204600F041
:1011E0008AF80020207720680069C0F3C000D8B1D9
:1011F0002068C068C0F3C000B0B16FF0080021687B
:101200000861042020772068C06900F0030018B14D
:101210002046FFF7A3FF05E0204600F06BF82046CC
:1012200000F069F80020207720680069C0F3001002
:10123000D8B12068C068C0F30010B0B16FF01000E2
:1012400021680861082020772068C06900F4407098
:1012500018B12046FFF782FF05E0204600F04AF86B
:10126000204600F048F8002020772068006900F050
:10127000010058B12068C06800F0010030B16FF083
:10128000010021680861204600F036F820680069F6
:10129000C0F3C01058B12068C068C0F3C01030B1AE
:1012A0006FF08000216808612046FFF7B5FE2068D6
:1012B0000069C0F3801058B12068C068C0F3801086
:1012C00030B16FF0400021680861204600F02AF834
:1012D00020680069C0F3401058B12068C068C0F3AE
:1012E000401030B16FF02000216808612046FFF700
:1012F00094FE10BD7047704710B50446074920683A
:10130000884209D100BF41140548FFF75BFA00BFCE
:101310004FF4FA70FFF7B0F810BD00000004004071
:1013200000100140704770472DE9F04704462068DF
:1013300005682068C668206847694FF00008C14604
:1013400005F00F08B8F1000F0AD105F0200038B100
:1013500006F0200020B1204600F02AFABDE8F08710
:10136000B8F1000F71D007F0010018B906F49070C1
:1013700000286AD005F0010030B106F4807018B181
:10138000E06B40F00100E06305F0040030B107F0CD
:10139000010018B1E06B40F00200E06305F00200CC
:1013A00030B107F0010018B1E06B40F00400E063D9
:1013B00005F0080048B106F0200010B907F0010060
:1013C00018B1E06B40F00800E063E06B68B305F033
:1013D000200028B106F0200010B1204600F0E8F906
:1013E00020684069C0F38019E06B00F0080010B974
:1013F000B9F1000F22D0204600F0BAF92068406908
:1014000000F04000B0B12068406920F04000216841
:101410004861606B50B11848616B4863606BFEF7C0
:1014200057FF10B1606B416B88470CE02046FFF717
:101430007AFF08E02046FFF776FF04E02046FFF73A
:1014400072FF0020E06389E7FFE705F0800030B11C
:1014500006F0800018B1204600F0FAF97EE705F0AA
:10146000400030B106F0400018B1204600F090F97D
:1014700074E700BF72E700005D17000810B503466F
:1014800093F83A0020282FD101B10AB9012010BDEC
:1014900000BF93F83800012801D10220F7E70120AE
:1014A00083F8380000BF99629A85DA850020D863F6
:1014B000222083F83A0000BF002083F8380000BFE4
:1014C0001868C06840F480701C68E0601868406963
:1014D00040F001001C6860611868C06840F020009E
:1014E0001C68E0600020D2E70220D0E71D4A0168B6
:1014F000914236D11C49098801F4004189BB1A493F
:10150000098801F4804171B1184909780A2903D08A
:101510000021154A118024E01349098841F4004153
:10152000114A11801DE0114909780D2906D10E4993
:10153000098841F480410C4A118012E00B49097876
:10154000094A1288C2F30D02094B995406490988C9
:10155000491C054A118011460988C72901DD00216F
:1015600011807047003801400C0000200E00002060
:101570001C000020704700BFFEE7000000B585B0EA
:1015800000BF0F48806940F010000D49886108468F
:10159000806900F01000009000BF00BF00200190A3
:1015A0000290039004904FF40050019001200290AB
:1015B0000220049001A90348FEF764FF05B000BDB6
:1015C000001002400010014000BFFEE77047704766
:1015D00008B508490968C9084FF47A72B1FBF2F1FD
:1015E0004143009100BF00BF00994A1E00920029AC
:1015F000F9D108BD00000020704710B5FFF7F2F8E0
:1016000010BD00B58FB0282105A8FEF700FE1421FB
:101610006846FEF7FCFD01200590000406900020BE
:10162000079002200C90C1030D9141040E9105A872
:10163000FFF792FA0F200090022001900020029004
:101640004FF4806003900020049000216846FFF76B
:1016500073F90FB000BD00001148006840F00100B0
:101660000F490860084640680E4908400C49486028
:10167000084600680C4908400949086008460068A7
:1016800020F4802008600846406820F4FE0048608E
:101690004FF41F008860C8030449086070470000C9
:1016A000001002400000FFF8FFFFF6FE08ED00E02A
:1016B00010B50248FFF753FD10BD000024010020C3
:1016C00010B50268204B98420ED0204B98420BD0A8
:1016D000B0F1804F08D01E4B984205D01D4B984268
:1016E00002D01D4B984203D122F070024B681A437E
:1016F000154B98420ED0154B98420BD0B0F1804F4D
:1017000008D0134B984205D0124B984202D0124B8E
:10171000984203D122F44072CB681A4322F080032E
:101720004C6943EA040202608B68C3620B688362FF
:10173000054B984202D0054B984201D10B690363D7
:101740000123436110BD0000002C01400034014022
:101750000004004000080040000C004070B5054641
:101760006C6A0020E085E0842046FFF7DCFD70BD58
:101770000168C96821F490710268D1600168496903
:1017800021F0010102685161202180F83A10704770
:1017900010B504462068C06820F040002168C86089
:1017A000202084F839002046FFF7E4FE002010BD19
:1017B00070B5044694F83A00222847D1A068B0F5E5
:1017C000805F0CD1206950B90025A66A2068406866
:1017D000C0F308003080A06A801CA06215E0A56AF2
:1017E0000026A068B0F5805F03D0A06828B9206902
:1017F00018B920684068287004E02068406800F04C
:101800007F002870A06A401CA062E08D401E80B25C
:10181000E085C8B92068C06820F020002168C86051
:101820002068C06820F480702168C8602068406922
:1018300020F0010021684861202084F83A00204609
:10184000FFF754FE002070BD0020FCE70220FAE7FD
:10185000014691F83900212828D18868B0F5805FC9
:101860000BD1086948B90A6A1088C0F308000B68F0
:101870005860086A801C086205E00B6A581C086200
:1018800018780B685860C88C401E80B2C88458B95C
:101890000868C06820F080000B68D8600868C068DD
:1018A00040F040000B68D860002070470220FCE741
:1018B00010B50648FFF738FD00BF01220449034870
:1018C000FFF7DCFD0028F8D110BD0000E400002087
:1018D0000E00002000BFFEE702480068C0F30220AF
:1018E000704700000CED00E010B5002804DB0A078B
:1018F000130E054A135406E00A07140E034A00F0BB
:101900000F031B1FD45410BD00E400E018ED00E0ED
:1019100000BF704710B5044600204FF0E021086179
:10192000FFF74CFB2046E11704EB5171C1F3CF01E7
:10193000014A118010BD00000400002070B504466B
:101940004FF47A7094FBF0F594FBF0F100FB114634
:1019500003E0074800F00EF86D1E002DF9D12EB1FE
:101960004FF47A7106FB01F000F004F870BD00003E
:1019700040420F000146114A12884A434FF0E023CB
:101980005A6100229A611A46126942F001021A61F4
:1019900000BF4FF0E022106900F001021AB100F41C
:1019A0008032002AF5D04FF0E022126922F00102C5
:1019B0004FF0E0231A6100229A6170470400002072
:1019C00070B505460C46074807490860084644605C
:1019D00000218160C560FFF721FB0348FFF776FB1C
:1019E00070BD00000004004024010020FEF706FF47
:1019F000FFF707FE4820FFF78DFFFFF7BFFD41F619
:101A00001F4141F28730FFF7DBFF00BFFEE7000018
:101A1000000000000000010203040607080900009E
:101A20000000010203040000481A00080000002022
:101A30001C0000006C010008641A00081C00002053
:101A4000B4070000880100080024F4000000000032
:101A50000000000000000000000000001000000076
:041A60000100000081
:0400000508000131BD
:00000001FF
