:020000040800F2
:10000000C8070020CD01000859110008511100084F
:10001000551100087D0200089D1200080000000034
:100020000000000000000000000000006111000856
:1000300081020008000000005D1100086511000841
:10004000E7010008E7010008E7010008E7010008F0
:10005000E7010008E7010008E7010008E7010008E0
:10006000E7010008E7010008E7010008E7010008D0
:10007000E7010008E7010008E7010008E7010008C0
:10008000E7010008E7010008E7010008E7010008B0
:10009000E7010008E7010008E7010008E7010008A0
:1000A000E7010008E7010008E7010008E701000890
:1000B000E7010008E7010008E7010008E701000880
:1000C000E7010008E7010008E7010008E701000870
:1000D000E701000841120008E7010008E7010008F5
:1000E000E7010008E7010008E7010008E701000850
:1000F000E7010008E7010008E7010008E701000840
:10010000E7010008E7010008E7010008E70100082F
:10011000E7010008E7010008E7010008E70100081F
:10012000E7010008E7010008E7010008E70100080F
:1001300000F002F800F03AF80AA090E8000C8244BF
:100140008344AAF10107DA4501D100F02FF8AFF29C
:10015000090EBAE80F0013F0010F18BFFB1A43F0A5
:10016000010318472012000040120000103A24BF7B
:1001700078C878C1FAD8520724BF30C830C144BF0C
:1001800004680C607047000000230024002500264E
:10019000103A28BF78C1FBD8520728BF30C148BFEA
:1001A0000B6070471FB51FBD10B510BD00F033F8D0
:1001B0001146FFF7F7FF01F087F800F051F803B49C
:1001C000FFF7F2FF03BC01F06BF80000094880471D
:1001D00009480047FEE7FEE7FEE7FEE7FEE7FEE729
:1001E000FEE7FEE7FEE7FEE704480549054A064B41
:1001F000704700006911000831010008C8010020A3
:10020000C8070020C8030020C803002070477047BB
:10021000704770477047754600F02CF8AE460500F1
:100220006946534620F00700854618B020B5FFF711
:10023000DBFFBDE820404FF000064FF000074FF015
:1002400000084FF0000BAC46ACE8C009ACE8C009B0
:10025000ACE8C009ACE8C00921F007018D46704741
:1002600010B50446AFF300802046BDE81040FFF70C
:10027000A6BF00000048704710000020FEE7000005
:100280007047000080B590F82110022927D102683C
:1002900040F2040C1368C4F2020C23F00E03136046
:1002A00013680CF17C018A4223F0010111601AD914
:1002B00040F20841C4F202018A4247D040F21C4198
:1002C000C4F202018A4245D040F23041C4F2020138
:1002D0008A4243D14FF48073CCF8003457E00421B4
:1002E0008163012080BD4321C4F202018A420EDDF8
:1002F0006B21C4F202018A421BDC4421C4F20201D8
:100300008A4239D05821C4F202018A4231E00821E0
:10031000C4F202018A4232D01C21C4F202018A4294
:1003200032D03021C4F202018A4222D14FF48072CD
:100330002BE06C21C4F202018A4222D08021C4F257
:1003400002018A4215D14FF080721EE00123CCF8E1
:1003500000341CE01023CCF8003418E00CF5886160
:100360004FF480338A4208BF4FF48053CCF80034F6
:100370000DE04FF4803208E04FF4805205E0012296
:1003800003E04FF4801200E01022CCF80020416B13
:100390004FF48072028401B18847002080BD0000C4
:1003A0002DE9F04F82B00E68002E00F0E880A0F139
:1003B000804241F60045A2F58432C4F201050624CC
:1003C0004FEAB227A84208BF052440F2004E052F8D
:1003D00038BF4FEAB224C4F2010E009400244FF05B
:1003E00001080F234FF0000A4FF0000B09E000BF97
:1003F0000E680AF1010A36FA0AF204F1040400F068
:10040000BE8008FA0AFC16EA0C09F1D04E684FF6D5
:10041000FF72C1F21002964210DC122E50D8DFE8B3
:1004200006F0330A41454F4F4F4F4F4F4F4F4F4FFD
:100430004F4F4F484C00D1F80CB041E04FF6FF72DF
:10044000C1F2210296420FDC0022C1F21102964253
:100450001AD00022C1F21202964215D00022C1F237
:100460002102964210D02BE00022C1F222029642D5
:100470000AD00022C1F23102964205D00022C1F218
:10048000320296421CD100BF8A6842B1012A14BFD1
:10049000C0F814C0C0F810C04FF0080B10E04FF0C7
:1004A000040B0DE0CA6802F1080B09E04FF0000BE5
:1004B00006E0CA6802F1040B02E0CA6802F10C0B04
:1004C00022460646B9F5807F24BF203A04363768B5
:1004D00003FA02F5AF430BFA02F23A433260CA79EB
:1004E000D2067FF585AF41F21807C4F202073A68D9
:1004F0004FF6084342F001023A603A68CFF6FF73C4
:1005000002F001020192019A2AF0030272440F25BF
:10051000D75804F00C06B540AF43009D05FA06F627
:100520003743D7504E6840F20C45F203DEF8002006
:1005300054BF22EA090242EA0902CEF80020DEF89E
:100540000420B70354BF22EA090242EA0902CEF8A6
:100550000420DEF80820C4F20105F70254BF22EAA5
:10056000090242EA0902CEF808200F232A68B702DE
:1005700054BF22EA090242EA09022A6038E702B0BF
:10058000BDE8F08F40F2C010C2F200000068704772
:1005900040F2080040F2C011C2F20000C2F20001B5
:1005A00000780A68104408607047000080B542F285
:1005B0000000C4F20200016841F010010160032054
:1005C00000F06EF80F2000F005F800F02BF8002086
:1005D00080BD0000B0B540F20802C2F2000240F255
:1005E00004011278C2F200014FF47A730968B3FB78
:1005F000F2F20446B1FBF2F1084600F00BFB0F2CBF
:100600004FF001050CD858B94FF0FF3021460022B9
:10061000002500F019F840F20C00C2F2000004605E
:100620002846B0BD70470000002848BF704700F062
:100630001F01012202FA01F14EF200124009CEF22E
:10064000000242F82010704710B54EF60C5CCEF256
:10065000000CDCF80030C3F3022E8EF00704042CEB
:1006600028BF0424BEF103034FF0FF3E0EFA04F44A
:1006700038BF0023A14399400EFA03F39A43114374
:1006800000F1604200F00F03090102F56442043BEF
:100690006344002848BF03F10C02117010BD000034
:1006A0004EF60C51CEF200010A684FF6FF031A40D5
:1006B00060F30A2242F0806040F0FD7008607047ED
:1006C0002DE9F04381B0002800F0858042F2000857
:1006D000C4F202080446D8F800000D4600F00700F6
:1006E00088420CD2D8F8000020F007002843C8F850
:1006F0000000D8F8000000F00700A8426BD1206885
:1007000041F204098107C4F2020917D5410705D552
:10071000D9F8001041F4E061C9F80010010705D5CF
:10072000D9F8001041F46051C9F80010D9F8001050
:10073000A26821F0F0011143C9F80010C00741D1AF
:10074000D8F8000000F00700A8420CD9D8F8000043
:1007500020F007002843C8F80000D8F8000000F097
:100760000700A84237D12068410707D5D9F8001003
:10077000E26821F4E0611143C9F80010000708D5D0
:10078000D9F80000216920F4605040EAC100C9F89E
:100790000000D9F8002002F00C00082841F20020E7
:1007A000C0F27A004ED141F27433C2F38341C0F6F5
:1007B0000003595CD20339D440F60010C0F23D006A
:1007C00048433FE06068022809D0012829D159F840
:1007D000041C890307D4012001B0BDE8F08359F857
:1007E000041C8901F7D5D9F8001021F00301084352
:1007F000C9F80000FFF7C6FE064641F2883700BF81
:10080000D9F80000616800F00C00B0EB810F97D0C0
:10081000FFF7B8FE801BB842F2D9032001B0BDE853
:10082000F08359F8041C8907D5D5DCE7D9F80020F6
:1008300041F25A33C2F34042C0F600039A5C484387
:10084000B0FBF2F0D9F8001041F25C32C1F30311B1
:10085000C0F60002515C40F2040220FA01F140F2BD
:100860000C00C2F200000068C2F200021160FFF743
:10087000B1FE002001B0BDE8F083000040F20400AA
:1008800041F20401C2F20000C4F2020100680968EA
:1008900041F26C32C1F30221C0F60002515CC84043
:1008A0007047000040F2040041F20401C2F200006F
:1008B000C4F202010068096841F26C32C1F3C2213E
:1008C000C0F60002515CC840704700002DE9F041BD
:1008D00082B0002800F0D7800446007841F200067C
:1008E000C007C4F2020644D0706800F00C0004286F
:1008F00017D0706800F00C00082802D17068C0039F
:100900000FD465682DB1B5F5A02F10D0B5F5803F97
:1009100011D0306820F480303060306820F48020BE
:100920000CE03068800324D5606810BBABE0306811
:1009300040F480203060306840F480303060FFF751
:1009400021FE002D054611D03068800311D4FFF739
:1009500019FE401B6428F7D916E100BFFFF712FE0D
:10096000401B64284FF0030000F28A803068800347
:10097000F4D42078800718D5706810F00C0F07D0D9
:10098000706800F00C00082827D17068C00324D4D8
:100990003068800702D52069012874D13068616908
:1009A00020F0F80040EAC1003060207800074FD501
:1009B000A06940B30020C4F242200121C0F8801495
:1009C000FFF7E0FD054600BF706A80072DD4FFF7F2
:1009D000D9FD401B0228F7D9D6E02069002840F253
:1009E0000000C4F2422000F0A68001210160FFF760
:1009F000C9FD054630688007D0D4FFF7C3FD401B12
:100A00000228F7D9C0E00020C4F242200021C0F83B
:100A10008014FFF7B7FD0546706A800718D5FFF709
:100A2000B1FD401B0228F7D9AEE040F20400C2F24B
:100A30000000006844F6D351C1F26201A0FB01013D
:100A4000480A019000BF0198411E00280191F9D188
:100A5000207840071BD4E5698DB1706800F00C0068
:100A6000082846D1012D0ED07068216A00F480322A
:100A70008A4208D1616A00F47010884203D10020D4
:100A800002B0BDE8F081012002B0BDE8F081F0695C
:100A900010F0805808D1F06940F08050F061F069A2
:100AA00000F080500090009847F20007C4F2000761
:100AB0003868C0050FD4386840F480703860FFF79C
:100AC00061FD05463868C00505D4FFF75BFD401B96
:100AD0006428F7D958E0E5681DB1052D3CD0012DFB
:100AE0003ED0306A20F001003062306A20F004000D
:100AF00039E00027C4F2422700203866FFF742FDA4
:100B0000022D05460CD100BF3068800154D5FFF797
:100B100039FD401B02284FF00300F5D9B0E700BFB4
:100B200030688001ABD5FFF72DFD401B02284FF048
:100B30000300F5D9A4E700210160FFF723FD054676
:100B4000306880077FF531AFFFF71CFD401B02289E
:100B50004FF00300F4D993E7306A40F004003062AC
:100B6000306A40F001003062FFF70CFD002D0546B1
:100B700041F2883714D000BF306A800713D4FFF7E2
:100B800001FD401BB842F7D9032002B0BDE8F08157
:100B9000FFF7F8FC401BB8424FF003003FF670AF80
:100BA000306A8007F4D4B8F1000F7FF454AFF069D5
:100BB00020F08050F0614EE7206AB0F5803F05D10B
:100BC0007168A26821F40031114371607168626A32
:100BD00021F4741111430843706001203866FFF757
:100BE000D1FC0446306880013FF549AFFFF7CAFCED
:100BF000001B02284FF00300F4D941E74EF2100128
:100C0000CEF200010A68042822F0040208BF043270
:100C10000A607047411E0020B0EB116F1CBF01201D
:100C200070474EF21002CEF2000251604EF6235190
:100C3000CEF20001F0230B70072190601160704725
:100C400070470000B0B5016804460868CB684A697F
:100C500000F02F05202D03F0200505D125B12046F9
:100C6000BDE8B04000F0AEBA5FEA007C1EBF02F003
:100C7000010E03F4907212EB0E022DD1020619D56B
:100C800013F0800216D094F83900212811D1A06801
:100C9000B0F5805F03D12069002800F09380206ABE
:100CA000421C226200784860E08C01380204E08433
:100CB0007AD0B0BD4006FCD513F0400008BFB0BDEF
:100CC000C86820F04000C8602021204684F8391010
:100CD000BDE8B04000F03ABAC10718BF13F4807104
:100CE00002D1410706D40CE0E16B41F00101E16360
:100CF000410706D5BEF1000F03D0E16B41F00201C0
:100D0000E163810706D5BEF1000F03D0E16B41F02E
:100D10000401E163BCF1000F09D545EA0E01B1FA07
:100D200081F1490903D1E16B41F00801E163E16B15
:100D30000029BED010F0200018BF002D02D02046A0
:100D400000F040FA20684169E26B01F0400102F0D6
:100D50000802891822D0C16821F49071C1604169EC
:100D600021F001014161202184F83A1041694906CE
:100D700023D5416921F040014161606BE8B141F246
:100D8000B911C0F600014163FFF77CFA00283FF477
:100D900090AF606B416BBDE8B04008472046FFF75D
:100DA0004FFF0020E063B0BDC86820F08000C8603D
:100DB000C86840F04000C860B0BD2046BDE8B04003
:100DC000FFF73EBF206A30F8022B6FF35F224A60C4
:100DD000206269E7002804BF0120704710B504466F
:100DE00090F8390028B9002084F83800204600F037
:100DF00061F8242084F839002068D4E90212C3681D
:100E000023F40053C360036923F440531A4302617F
:100E1000D4E904231143C268194341F20C639A4395
:100E20001143C1604169A26921F44071114343F645
:100E30000002C4F201029042416102D0FFF71EFDA0
:100E400001E0FFF72FFD6268192148439100B0FBD4
:100E5000F1F048F21F51C5F2EB11A0FB01235A0932
:100E60004FF69C73C0F6FF7302FB0300322303EBC3
:100E70000010A0FB0101F02303EA5113206803EBEB
:100E80000212C1F3431111448160016921F49041C0
:100E90000161416921F02A014161C16841F40051B9
:100EA000C16000202021E06384F8391084F83A10F2
:100EB00010BD0000B0B584B040F60004C4F20104D7
:100EC000006804F54051884201D004B0B0BD41F241
:100ED0001800C4F2020001686D4641F0040101608F
:100EE000016801F0040100910099016841F00401DA
:100EF0000160016801F0040100910099016841F46A
:100F0000804101600068294600F48040009000980C
:100F10004FF4007000900220019001200290032005
:100F200003902046FFF73CFA4FF4806000900020C9
:100F3000019020462946FFF733FA2520FFF774FB7E
:100F4000252003210322FFF77FFB04B0B0BD000082
:100F5000034690F83A0020280AD100294FF00100FA
:100F600018BF002A00D1704793F83800012801D13A
:100F7000022070479962002022219A85DA85D86381
:100F800083F83A10196883F83800CA6842F480720E
:100F9000CA604A6942F001024A61CA6842F020020E
:100FA000CA607047006843F60001C4F2010188423C
:100FB00000D0704740F2BC1CC2F2000CBCF800200C
:100FC00011B2002948BF704740F2B203C2F20003D9
:100FD0001B78500406D40D2B10D141F48042ACF89C
:100FE0000020704748F200000022CFF6FF700A2B65
:100FF00008BF41EA0002ACF80020704740F2F4005C
:101000006FF39F32C2F2000083544A1C90B2C7288B
:1010100088BF0022ACF80020704700002DE9F043A3
:1010200081B0044690F8390020280DD10D460029E2
:101030004FF0010000F086801646002A00F0828002
:1010400094F83800012803D1022001B0BDE8F083F4
:10105000012084F838000020E0632120984684F8BD
:101060003900FFF78FFAA684E684A1688146B1F5BE
:10107000805F01D1206910B12F46002500E00027D4
:10108000002084F83800E08C58B308F1010609E02C
:1010900097B117F8010B21684860E08C0138E084B3
:1010A000E08CF0B1206800680006F1D4BEB1B8F160
:1010B000000F0ED120E000BF35F8020B21686FF35E
:1010C0005F2048600027E8E701680906E0D4002EA9
:1010D000FAD0FFF757FAA0EB090040450CD820687A
:1010E000F2E720680068400628D4B8F1000F03D06A
:1010F00018F1010515D01AE02068C16821F4D071FB
:10110000C160416921F001014161202084F839006A
:1011100084F83A00002084F83800032001B0BDE8CC
:10112000F08320680168490608D4002DFAD0FFF743
:1011300029FAA0EB09004045F3D9DDE7202084F827
:101140003900002001B0BDE8F083000070470000C6
:10115000FEE70000FEE70000704700007047000057
:1011600070470000FFF714BA41F20000C4F2020019
:101170000168002241F0010101604168CFF6FF02E1
:101180001140416001684FF6FF72CFF6F6621140E0
:101190000160016821F480210160416821F4FE01B1
:1011A00041604FF41F0181604EF60850CEF20000FE
:1011B0004FF0006101607047406A0021C185C18421
:1011C000FFF73EBD90F83A10222918BF7047826899
:1011D000B2F5805F01D1016991B1816AB2F5805F9A
:1011E00007D00AB9026922B10268526802F07F0290
:1011F00001E0026852680A70816A0131816207E089
:101200000168826A49686FF35F2122F8021B8262DB
:10121000C18D01390A04C18500D070470168CA68D0
:1012200022F02002CA60CA6822F48072CA604A6949
:1012300022F001024A61202180F83A10FFF7B2BE85
:10124000B0B540F2B404C2F200042046FFF7FAFC45
:1012500040F2B205C2F20005204629460122FFF7FE
:1012600077FE0028F8D1B0BD80B590B043F60000FD
:10127000C4F2010000904FF4E13001900020CDE96C
:10128000020006900C2005906846FFF7A3FD009829
:10129000C16841F02001C16010B080BDFEE70000D0
:1012A0007047000010B504464EF21000CEF2000068
:1012B000002101600020FFF7A1FC40F2B001E0082E
:1012C000C2F20001088010BD70B5FFF76FF94FF44E
:1012D000E01000F01FF84820FFF7E4FFFFF7C4FF1D
:1012E00040F27004002507A6C2F2000471192046DE
:1012F00001224FF47A73FFF791FE01350C2DF5D1E1
:10130000002070BD48656C6C6F2C576F726C642147
:1013100000000000B0B590B0012106914FF480317B
:10132000002402250F9006A807910894CDE90D51DD
:10133000FFF7CCFA08B100BFFEE70F20CDE90105A9
:101340004FF48060CDE9040401A802210394FFF763
:10135000B7F900B1FEE710B0B0BD01020000000017
:101360000000000001020304060708090000000055
:101370000102030402030405060708090A0B0C0D09
:101380000E0F1010A813000800000020100000002D
:101390006C010008B813000810000020B807000016
:1013A0008801000800000000010000000024F40093
:0813B000010000001000000024
:0400000508000131BD
:00000001FF
